{
  "contractName": "LandSale",
  "abi": [
    {
      "anonymous": false,
      "inputs": [
        {
          "indexed": true,
          "internalType": "address",
          "name": "owner",
          "type": "address"
        },
        {
          "indexed": true,
          "internalType": "address",
          "name": "approved",
          "type": "address"
        },
        {
          "indexed": true,
          "internalType": "uint256",
          "name": "tokenId",
          "type": "uint256"
        }
      ],
      "name": "Approval",
      "type": "event"
    },
    {
      "anonymous": false,
      "inputs": [
        {
          "indexed": true,
          "internalType": "address",
          "name": "owner",
          "type": "address"
        },
        {
          "indexed": true,
          "internalType": "address",
          "name": "operator",
          "type": "address"
        },
        {
          "indexed": false,
          "internalType": "bool",
          "name": "approved",
          "type": "bool"
        }
      ],
      "name": "ApprovalForAll",
      "type": "event"
    },
    {
      "anonymous": false,
      "inputs": [
        {
          "indexed": true,
          "internalType": "uint256",
          "name": "landID",
          "type": "uint256"
        },
        {
          "indexed": false,
          "internalType": "address",
          "name": "highestBidder",
          "type": "address"
        },
        {
          "indexed": false,
          "internalType": "uint256",
          "name": "highestBid",
          "type": "uint256"
        }
      ],
      "name": "BidEvent",
      "type": "event"
    },
    {
      "anonymous": false,
      "inputs": [
        {
          "indexed": true,
          "internalType": "address",
          "name": "from",
          "type": "address"
        },
        {
          "indexed": true,
          "internalType": "address",
          "name": "to",
          "type": "address"
        },
        {
          "indexed": true,
          "internalType": "uint256",
          "name": "tokenId",
          "type": "uint256"
        }
      ],
      "name": "Transfer",
      "type": "event"
    },
    {
      "stateMutability": "nonpayable",
      "type": "fallback"
    },
    {
      "inputs": [
        {
          "internalType": "address",
          "name": "to",
          "type": "address"
        },
        {
          "internalType": "uint256",
          "name": "tokenId",
          "type": "uint256"
        }
      ],
      "name": "approve",
      "outputs": [],
      "stateMutability": "nonpayable",
      "type": "function"
    },
    {
      "inputs": [
        {
          "internalType": "address",
          "name": "owner",
          "type": "address"
        }
      ],
      "name": "balanceOf",
      "outputs": [
        {
          "internalType": "uint256",
          "name": "",
          "type": "uint256"
        }
      ],
      "stateMutability": "view",
      "type": "function",
      "constant": true
    },
    {
      "inputs": [
        {
          "internalType": "uint256",
          "name": "tokenId",
          "type": "uint256"
        }
      ],
      "name": "getApproved",
      "outputs": [
        {
          "internalType": "address",
          "name": "",
          "type": "address"
        }
      ],
      "stateMutability": "view",
      "type": "function",
      "constant": true
    },
    {
      "inputs": [
        {
          "internalType": "uint256",
          "name": "landID",
          "type": "uint256"
        }
      ],
      "name": "getLandDetails",
      "outputs": [
        {
          "components": [
            {
              "internalType": "uint256",
              "name": "surveyNo",
              "type": "uint256"
            },
            {
              "internalType": "string",
              "name": "district",
              "type": "string"
            },
            {
              "internalType": "string",
              "name": "taluk",
              "type": "string"
            },
            {
              "internalType": "string",
              "name": "village",
              "type": "string"
            },
            {
              "internalType": "uint256",
              "name": "blockNo",
              "type": "uint256"
            },
            {
              "internalType": "uint256",
              "name": "landValue",
              "type": "uint256"
            },
            {
              "internalType": "uint256",
              "name": "area",
              "type": "uint256"
            },
            {
              "internalType": "bool",
              "name": "salesStatus",
              "type": "bool"
            },
            {
              "internalType": "bytes",
              "name": "documentHash",
              "type": "bytes"
            }
          ],
          "internalType": "struct LandRegistration.LandDetail",
          "name": "",
          "type": "tuple"
        }
      ],
      "stateMutability": "view",
      "type": "function",
      "constant": true
    },
    {
      "inputs": [
        {
          "internalType": "address",
          "name": "owner",
          "type": "address"
        },
        {
          "internalType": "address",
          "name": "operator",
          "type": "address"
        }
      ],
      "name": "isApprovedForAll",
      "outputs": [
        {
          "internalType": "bool",
          "name": "",
          "type": "bool"
        }
      ],
      "stateMutability": "view",
      "type": "function",
      "constant": true
    },
    {
      "inputs": [],
      "name": "name",
      "outputs": [
        {
          "internalType": "string",
          "name": "",
          "type": "string"
        }
      ],
      "stateMutability": "view",
      "type": "function",
      "constant": true
    },
    {
      "inputs": [
        {
          "internalType": "uint256",
          "name": "tokenId",
          "type": "uint256"
        }
      ],
      "name": "ownerOf",
      "outputs": [
        {
          "internalType": "address",
          "name": "",
          "type": "address"
        }
      ],
      "stateMutability": "view",
      "type": "function",
      "constant": true
    },
    {
      "inputs": [
        {
          "internalType": "uint256",
          "name": "surveyNo",
          "type": "uint256"
        },
        {
          "internalType": "string",
          "name": "district",
          "type": "string"
        },
        {
          "internalType": "string",
          "name": "taluk",
          "type": "string"
        },
        {
          "internalType": "string",
          "name": "village",
          "type": "string"
        },
        {
          "internalType": "uint256",
          "name": "blockNo",
          "type": "uint256"
        },
        {
          "internalType": "uint256",
          "name": "landValue",
          "type": "uint256"
        },
        {
          "internalType": "uint256",
          "name": "area",
          "type": "uint256"
        },
        {
          "internalType": "bytes",
          "name": "documentHash",
          "type": "bytes"
        }
      ],
      "name": "registerNewLand",
      "outputs": [],
      "stateMutability": "nonpayable",
      "type": "function"
    },
    {
      "inputs": [],
      "name": "registeredLandCount",
      "outputs": [
        {
          "internalType": "uint256",
          "name": "",
          "type": "uint256"
        }
      ],
      "stateMutability": "view",
      "type": "function",
      "constant": true
    },
    {
      "inputs": [
        {
          "internalType": "address",
          "name": "from",
          "type": "address"
        },
        {
          "internalType": "address",
          "name": "to",
          "type": "address"
        },
        {
          "internalType": "uint256",
          "name": "tokenId",
          "type": "uint256"
        }
      ],
      "name": "safeTransferFrom",
      "outputs": [],
      "stateMutability": "nonpayable",
      "type": "function"
    },
    {
      "inputs": [
        {
          "internalType": "address",
          "name": "from",
          "type": "address"
        },
        {
          "internalType": "address",
          "name": "to",
          "type": "address"
        },
        {
          "internalType": "uint256",
          "name": "tokenId",
          "type": "uint256"
        },
        {
          "internalType": "bytes",
          "name": "data",
          "type": "bytes"
        }
      ],
      "name": "safeTransferFrom",
      "outputs": [],
      "stateMutability": "nonpayable",
      "type": "function"
    },
    {
      "inputs": [
        {
          "internalType": "address",
          "name": "operator",
          "type": "address"
        },
        {
          "internalType": "bool",
          "name": "approved",
          "type": "bool"
        }
      ],
      "name": "setApprovalForAll",
      "outputs": [],
      "stateMutability": "nonpayable",
      "type": "function"
    },
    {
      "inputs": [
        {
          "internalType": "bytes4",
          "name": "interfaceId",
          "type": "bytes4"
        }
      ],
      "name": "supportsInterface",
      "outputs": [
        {
          "internalType": "bool",
          "name": "",
          "type": "bool"
        }
      ],
      "stateMutability": "view",
      "type": "function",
      "constant": true
    },
    {
      "inputs": [],
      "name": "symbol",
      "outputs": [
        {
          "internalType": "string",
          "name": "",
          "type": "string"
        }
      ],
      "stateMutability": "view",
      "type": "function",
      "constant": true
    },
    {
      "inputs": [
        {
          "internalType": "uint256",
          "name": "tokenId",
          "type": "uint256"
        }
      ],
      "name": "tokenURI",
      "outputs": [
        {
          "internalType": "string",
          "name": "",
          "type": "string"
        }
      ],
      "stateMutability": "view",
      "type": "function",
      "constant": true
    },
    {
      "inputs": [
        {
          "internalType": "address",
          "name": "from",
          "type": "address"
        },
        {
          "internalType": "address",
          "name": "to",
          "type": "address"
        },
        {
          "internalType": "uint256",
          "name": "tokenId",
          "type": "uint256"
        }
      ],
      "name": "transferFrom",
      "outputs": [],
      "stateMutability": "nonpayable",
      "type": "function"
    },
    {
      "inputs": [
        {
          "internalType": "uint256",
          "name": "landID",
          "type": "uint256"
        }
      ],
      "name": "bid",
      "outputs": [],
      "stateMutability": "payable",
      "type": "function",
      "payable": true
    },
    {
      "inputs": [
        {
          "internalType": "uint256",
          "name": "landID",
          "type": "uint256"
        }
      ],
      "name": "acceptBid",
      "outputs": [],
      "stateMutability": "nonpayable",
      "type": "function"
    }
  ],
  "bytecode": "0x608060405260006007553480156200001657600080fd5b506040518060400160405280600481526020017f4c616e64000000000000000000000000000000000000000000000000000000008152506040518060400160405280600381526020017f4c4e44000000000000000000000000000000000000000000000000000000000081525081600090805190602001906200009b929190620000bd565b508060019080519060200190620000b4929190620000bd565b505050620001d2565b828054620000cb906200019c565b90600052602060002090601f016020900481019282620000ef57600085556200013b565b82601f106200010a57805160ff19168380011785556200013b565b828001600101855582156200013b579182015b828111156200013a5782518255916020019190600101906200011d565b5b5090506200014a91906200014e565b5090565b5b80821115620001695760008160009055506001016200014f565b5090565b7f4e487b7100000000000000000000000000000000000000000000000000000000600052602260045260246000fd5b60006002820490506001821680620001b557607f821691505b60208210811415620001cc57620001cb6200016d565b5b50919050565b61366b80620001e26000396000f3fe60806040526004361061010d5760003560e01c80636352211e11610095578063a7613a7d11610064578063a7613a7d1461037c578063b88d4fde146103a7578063c87b56dd146103d0578063e985e9c51461040d578063fe0cb7dc1461044a5761010e565b80636352211e146102ae57806370a08231146102eb57806395d89b4114610328578063a22cb465146103535761010e565b806310d10780116100dc57806310d10780146101ee57806323b872dd146102175780632b1fd58a1461024057806342842e0e14610269578063454a2ab3146102925761010e565b806301ffc9a71461012057806306fdde031461015d578063081812fc14610188578063095ea7b3146101c55761010e565b5b34801561011a57600080fd5b50600080fd5b34801561012c57600080fd5b5061014760048036038101906101429190612456565b610487565b604051610154919061249e565b60405180910390f35b34801561016957600080fd5b50610172610569565b60405161017f9190612552565b60405180910390f35b34801561019457600080fd5b506101af60048036038101906101aa91906125aa565b6105fb565b6040516101bc9190612618565b60405180910390f35b3480156101d157600080fd5b506101ec60048036038101906101e7919061265f565b610641565b005b3480156101fa57600080fd5b5061021560048036038101906102109190612875565b610759565b005b34801561022357600080fd5b5061023e6004803603810190610239919061299b565b6108a1565b005b34801561024c57600080fd5b50610267600480360381019061026291906125aa565b610901565b005b34801561027557600080fd5b50610290600480360381019061028b919061299b565b610c09565b005b6102ac60048036038101906102a791906125aa565b610c29565b005b3480156102ba57600080fd5b506102d560048036038101906102d091906125aa565b610f0c565b6040516102e29190612618565b60405180910390f35b3480156102f757600080fd5b50610312600480360381019061030d91906129ee565b610f93565b60405161031f9190612a2a565b60405180910390f35b34801561033457600080fd5b5061033d61104b565b60405161034a9190612552565b60405180910390f35b34801561035f57600080fd5b5061037a60048036038101906103759190612a71565b6110dd565b005b34801561038857600080fd5b506103916110f3565b60405161039e9190612a2a565b60405180910390f35b3480156103b357600080fd5b506103ce60048036038101906103c99190612ab1565b6110f9565b005b3480156103dc57600080fd5b506103f760048036038101906103f291906125aa565b61115b565b6040516104049190612552565b60405180910390f35b34801561041957600080fd5b50610434600480360381019061042f9190612b34565b6111c3565b604051610441919061249e565b60405180910390f35b34801561045657600080fd5b50610471600480360381019061046c91906125aa565b611257565b60405161047e9190612d0b565b60405180910390f35b60007f80ac58cd000000000000000000000000000000000000000000000000000000007bffffffffffffffffffffffffffffffffffffffffffffffffffffffff1916827bffffffffffffffffffffffffffffffffffffffffffffffffffffffff1916148061055257507f5b5e139f000000000000000000000000000000000000000000000000000000007bffffffffffffffffffffffffffffffffffffffffffffffffffffffff1916827bffffffffffffffffffffffffffffffffffffffffffffffffffffffff1916145b80610562575061056182611510565b5b9050919050565b60606000805461057890612d5c565b80601f01602080910402602001604051908101604052809291908181526020018280546105a490612d5c565b80156105f15780601f106105c6576101008083540402835291602001916105f1565b820191906000526020600020905b8154815290600101906020018083116105d457829003601f168201915b5050505050905090565b60006106068261157a565b6004600083815260200190815260200160002060009054906101000a900473ffffffffffffffffffffffffffffffffffffffff169050919050565b600061064c82610f0c565b90508073ffffffffffffffffffffffffffffffffffffffff168373ffffffffffffffffffffffffffffffffffffffff1614156106bd576040517f08c379a00000000000000000000000000000000000000000000000000000000081526004016106b490612e00565b60405180910390fd5b8073ffffffffffffffffffffffffffffffffffffffff166106dc6115c5565b73ffffffffffffffffffffffffffffffffffffffff16148061070b575061070a816107056115c5565b6111c3565b5b61074a576040517f08c379a000000000000000000000000000000000000000000000000000000000815260040161074190612e92565b60405180910390fd5b61075483836115cd565b505050565b604051806101200160405280898152602001888152602001878152602001868152602001858152602001848152602001838152602001600015158152602001828152506006600060075481526020019081526020016000206000820151816000015560208201518160010190805190602001906107d7929190612273565b5060408201518160020190805190602001906107f4929190612273565b506060820151816003019080519060200190610811929190612273565b506080820151816004015560a0820151816005015560c0820151816006015560e08201518160070160006101000a81548160ff02191690831515021790555061010082015181600801908051906020019061086d9291906122f9565b5090505061087d33600754611686565b6001600760008282546108909190612ee1565b925050819055505050505050505050565b6108b26108ac6115c5565b826118a4565b6108f1576040517f08c379a00000000000000000000000000000000000000000000000000000000081526004016108e890612fa9565b60405180910390fd5b6108fc838383611939565b505050565b3373ffffffffffffffffffffffffffffffffffffffff166108fc60086000848152602001908152602001600020600001549081150290604051600060405180830381858888f1935050505015801561095d573d6000803e3d6000fd5b5061099f336008600084815260200190815260200160002060010160009054906101000a900473ffffffffffffffffffffffffffffffffffffffff1683610c09565b60005b6008600083815260200190815260200160002060030180549050811015610bd6576008600083815260200190815260200160002060010160009054906101000a900473ffffffffffffffffffffffffffffffffffffffff1673ffffffffffffffffffffffffffffffffffffffff16600860008481526020019081526020016000206003018281548110610a3857610a37612fc9565b5b9060005260206000200160009054906101000a900473ffffffffffffffffffffffffffffffffffffffff1673ffffffffffffffffffffffffffffffffffffffff161415610a8457610bc3565b600860008381526020019081526020016000206003018181548110610aac57610aab612fc9565b5b9060005260206000200160009054906101000a900473ffffffffffffffffffffffffffffffffffffffff1673ffffffffffffffffffffffffffffffffffffffff166108fc600860008581526020019081526020016000206002016000600860008781526020019081526020016000206003018581548110610b3057610b2f612fc9565b5b9060005260206000200160009054906101000a900473ffffffffffffffffffffffffffffffffffffffff1673ffffffffffffffffffffffffffffffffffffffff1673ffffffffffffffffffffffffffffffffffffffff168152602001908152602001600020549081150290604051600060405180830381858888f19350505050158015610bc1573d6000803e3d6000fd5b505b8080610bce90612ff8565b9150506109a2565b5060016006600083815260200190815260200160002060070160006101000a81548160ff02191690831515021790555050565b610c24838383604051806020016040528060008152506110f9565b505050565b610c3281610f0c565b73ffffffffffffffffffffffffffffffffffffffff163373ffffffffffffffffffffffffffffffffffffffff161415610c6a57600080fd5b6008600082815260200190815260200160002060000154346008600084815260200190815260200160002060020160003373ffffffffffffffffffffffffffffffffffffffff1673ffffffffffffffffffffffffffffffffffffffff16815260200190815260200160002054610ce09190612ee1565b11610d20576040517f08c379a0000000000000000000000000000000000000000000000000000000008152600401610d179061308d565b60405180910390fd5b336008600083815260200190815260200160002060010160006101000a81548173ffffffffffffffffffffffffffffffffffffffff021916908373ffffffffffffffffffffffffffffffffffffffff16021790555060086000828152602001908152602001600020600301339080600181540180825580915050600190039060005260206000200160009091909190916101000a81548173ffffffffffffffffffffffffffffffffffffffff021916908373ffffffffffffffffffffffffffffffffffffffff16021790555034600860008381526020019081526020016000206000016000828254610e129190612ee1565b92505081905550346008600083815260200190815260200160002060020160003373ffffffffffffffffffffffffffffffffffffffff1673ffffffffffffffffffffffffffffffffffffffff1681526020019081526020016000206000828254610e7c9190612ee1565b92505081905550807faba11c5dfdb797eb6f7328f5f70a9b390c19e34a3927e10f1925839d442c42936008600084815260200190815260200160002060010160009054906101000a900473ffffffffffffffffffffffffffffffffffffffff166008600085815260200190815260200160002060000154604051610f019291906130ad565b60405180910390a250565b600080610f1883611c33565b9050600073ffffffffffffffffffffffffffffffffffffffff168173ffffffffffffffffffffffffffffffffffffffff161415610f8a576040517f08c379a0000000000000000000000000000000000000000000000000000000008152600401610f8190613122565b60405180910390fd5b80915050919050565b60008073ffffffffffffffffffffffffffffffffffffffff168273ffffffffffffffffffffffffffffffffffffffff161415611004576040517f08c379a0000000000000000000000000000000000000000000000000000000008152600401610ffb906131b4565b60405180910390fd5b600360008373ffffffffffffffffffffffffffffffffffffffff1673ffffffffffffffffffffffffffffffffffffffff168152602001908152602001600020549050919050565b60606001805461105a90612d5c565b80601f016020809104026020016040519081016040528092919081815260200182805461108690612d5c565b80156110d35780601f106110a8576101008083540402835291602001916110d3565b820191906000526020600020905b8154815290600101906020018083116110b657829003601f168201915b5050505050905090565b6110ef6110e86115c5565b8383611c70565b5050565b60075481565b61110a6111046115c5565b836118a4565b611149576040517f08c379a000000000000000000000000000000000000000000000000000000000815260040161114090612fa9565b60405180910390fd5b61115584848484611ddd565b50505050565b60606111668261157a565b6000611170611e39565b9050600081511161119057604051806020016040528060008152506111bb565b8061119a84611e50565b6040516020016111ab929190613210565b6040516020818303038152906040525b915050919050565b6000600560008473ffffffffffffffffffffffffffffffffffffffff1673ffffffffffffffffffffffffffffffffffffffff16815260200190815260200160002060008373ffffffffffffffffffffffffffffffffffffffff1673ffffffffffffffffffffffffffffffffffffffff16815260200190815260200160002060009054906101000a900460ff16905092915050565b61125f61237f565b60066000838152602001908152602001600020604051806101200160405290816000820154815260200160018201805461129890612d5c565b80601f01602080910402602001604051908101604052809291908181526020018280546112c490612d5c565b80156113115780601f106112e657610100808354040283529160200191611311565b820191906000526020600020905b8154815290600101906020018083116112f457829003601f168201915b5050505050815260200160028201805461132a90612d5c565b80601f016020809104026020016040519081016040528092919081815260200182805461135690612d5c565b80156113a35780601f10611378576101008083540402835291602001916113a3565b820191906000526020600020905b81548152906001019060200180831161138657829003601f168201915b505050505081526020016003820180546113bc90612d5c565b80601f01602080910402602001604051908101604052809291908181526020018280546113e890612d5c565b80156114355780601f1061140a57610100808354040283529160200191611435565b820191906000526020600020905b81548152906001019060200180831161141857829003601f168201915b505050505081526020016004820154815260200160058201548152602001600682015481526020016007820160009054906101000a900460ff1615151515815260200160088201805461148790612d5c565b80601f01602080910402602001604051908101604052809291908181526020018280546114b390612d5c565b80156115005780601f106114d557610100808354040283529160200191611500565b820191906000526020600020905b8154815290600101906020018083116114e357829003601f168201915b5050505050815250509050919050565b60007f01ffc9a7000000000000000000000000000000000000000000000000000000007bffffffffffffffffffffffffffffffffffffffffffffffffffffffff1916827bffffffffffffffffffffffffffffffffffffffffffffffffffffffff1916149050919050565b61158381611f28565b6115c2576040517f08c379a00000000000000000000000000000000000000000000000000000000081526004016115b990613122565b60405180910390fd5b50565b600033905090565b816004600083815260200190815260200160002060006101000a81548173ffffffffffffffffffffffffffffffffffffffff021916908373ffffffffffffffffffffffffffffffffffffffff160217905550808273ffffffffffffffffffffffffffffffffffffffff1661164083610f0c565b73ffffffffffffffffffffffffffffffffffffffff167f8c5be1e5ebec7d5bd14f71427d1e84f3dd0314c0f7b2291e5b200ac8c7c3b92560405160405180910390a45050565b600073ffffffffffffffffffffffffffffffffffffffff168273ffffffffffffffffffffffffffffffffffffffff1614156116f6576040517f08c379a00000000000000000000000000000000000000000000000000000000081526004016116ed90613280565b60405180910390fd5b6116ff81611f28565b1561173f576040517f08c379a0000000000000000000000000000000000000000000000000000000008152600401611736906132ec565b60405180910390fd5b61174d600083836001611f69565b61175681611f28565b15611796576040517f08c379a000000000000000000000000000000000000000000000000000000000815260040161178d906132ec565b60405180910390fd5b6001600360008473ffffffffffffffffffffffffffffffffffffffff1673ffffffffffffffffffffffffffffffffffffffff16815260200190815260200160002060008282540192505081905550816002600083815260200190815260200160002060006101000a81548173ffffffffffffffffffffffffffffffffffffffff021916908373ffffffffffffffffffffffffffffffffffffffff160217905550808273ffffffffffffffffffffffffffffffffffffffff16600073ffffffffffffffffffffffffffffffffffffffff167fddf252ad1be2c89b69c2b068fc378daa952ba7f163c4a11628f55a4df523b3ef60405160405180910390a46118a0600083836001611f6f565b5050565b6000806118b083610f0c565b90508073ffffffffffffffffffffffffffffffffffffffff168473ffffffffffffffffffffffffffffffffffffffff1614806118f257506118f181856111c3565b5b8061193057508373ffffffffffffffffffffffffffffffffffffffff16611918846105fb565b73ffffffffffffffffffffffffffffffffffffffff16145b91505092915050565b8273ffffffffffffffffffffffffffffffffffffffff1661195982610f0c565b73ffffffffffffffffffffffffffffffffffffffff16146119af576040517f08c379a00000000000000000000000000000000000000000000000000000000081526004016119a69061337e565b60405180910390fd5b600073ffffffffffffffffffffffffffffffffffffffff168273ffffffffffffffffffffffffffffffffffffffff161415611a1f576040517f08c379a0000000000000000000000000000000000000000000000000000000008152600401611a1690613410565b60405180910390fd5b611a2c8383836001611f69565b8273ffffffffffffffffffffffffffffffffffffffff16611a4c82610f0c565b73ffffffffffffffffffffffffffffffffffffffff1614611aa2576040517f08c379a0000000000000000000000000000000000000000000000000000000008152600401611a999061337e565b60405180910390fd5b6004600082815260200190815260200160002060006101000a81549073ffffffffffffffffffffffffffffffffffffffff02191690556001600360008573ffffffffffffffffffffffffffffffffffffffff1673ffffffffffffffffffffffffffffffffffffffff168152602001908152602001600020600082825403925050819055506001600360008473ffffffffffffffffffffffffffffffffffffffff1673ffffffffffffffffffffffffffffffffffffffff16815260200190815260200160002060008282540192505081905550816002600083815260200190815260200160002060006101000a81548173ffffffffffffffffffffffffffffffffffffffff021916908373ffffffffffffffffffffffffffffffffffffffff160217905550808273ffffffffffffffffffffffffffffffffffffffff168473ffffffffffffffffffffffffffffffffffffffff167fddf252ad1be2c89b69c2b068fc378daa952ba7f163c4a11628f55a4df523b3ef60405160405180910390a4611c2e8383836001611f6f565b505050565b60006002600083815260200190815260200160002060009054906101000a900473ffffffffffffffffffffffffffffffffffffffff169050919050565b8173ffffffffffffffffffffffffffffffffffffffff168373ffffffffffffffffffffffffffffffffffffffff161415611cdf576040517f08c379a0000000000000000000000000000000000000000000000000000000008152600401611cd69061347c565b60405180910390fd5b80600560008573ffffffffffffffffffffffffffffffffffffffff1673ffffffffffffffffffffffffffffffffffffffff16815260200190815260200160002060008473ffffffffffffffffffffffffffffffffffffffff1673ffffffffffffffffffffffffffffffffffffffff16815260200190815260200160002060006101000a81548160ff0219169083151502179055508173ffffffffffffffffffffffffffffffffffffffff168373ffffffffffffffffffffffffffffffffffffffff167f17307eab39ab6107e8899845ad3d59bd9653f200f220920489ca2b5937696c3183604051611dd0919061249e565b60405180910390a3505050565b611de8848484611939565b611df484848484611f75565b611e33576040517f08c379a0000000000000000000000000000000000000000000000000000000008152600401611e2a9061350e565b60405180910390fd5b50505050565b606060405180602001604052806000815250905090565b606060006001611e5f846120fd565b01905060008167ffffffffffffffff811115611e7e57611e7d6126a9565b5b6040519080825280601f01601f191660200182016040528015611eb05781602001600182028036833780820191505090505b509050600082602001820190505b600115611f1d578080600190039150507f3031323334353637383961626364656600000000000000000000000000000000600a86061a8153600a8581611f0757611f0661352e565b5b0494506000851415611f1857611f1d565b611ebe565b819350505050919050565b60008073ffffffffffffffffffffffffffffffffffffffff16611f4a83611c33565b73ffffffffffffffffffffffffffffffffffffffff1614159050919050565b50505050565b50505050565b6000611f968473ffffffffffffffffffffffffffffffffffffffff16612250565b156120f0578373ffffffffffffffffffffffffffffffffffffffff1663150b7a02611fbf6115c5565b8786866040518563ffffffff1660e01b8152600401611fe194939291906135a7565b6020604051808303816000875af192505050801561201d57506040513d601f19601f8201168201806040525081019061201a9190613608565b60015b6120a0573d806000811461204d576040519150601f19603f3d011682016040523d82523d6000602084013e612052565b606091505b50600081511415612098576040517f08c379a000000000000000000000000000000000000000000000000000000000815260040161208f9061350e565b60405180910390fd5b805181602001fd5b63150b7a0260e01b7bffffffffffffffffffffffffffffffffffffffffffffffffffffffff1916817bffffffffffffffffffffffffffffffffffffffffffffffffffffffff1916149150506120f5565b600190505b949350505050565b600080600090507a184f03e93ff9f4daa797ed6e38ed64bf6a1f010000000000000000831061215b577a184f03e93ff9f4daa797ed6e38ed64bf6a1f01000000000000000083816121515761215061352e565b5b0492506040810190505b6d04ee2d6d415b85acef81000000008310612198576d04ee2d6d415b85acef8100000000838161218e5761218d61352e565b5b0492506020810190505b662386f26fc1000083106121c757662386f26fc1000083816121bd576121bc61352e565b5b0492506010810190505b6305f5e10083106121f0576305f5e10083816121e6576121e561352e565b5b0492506008810190505b612710831061221557612710838161220b5761220a61352e565b5b0492506004810190505b60648310612238576064838161222e5761222d61352e565b5b0492506002810190505b600a8310612247576001810190505b80915050919050565b6000808273ffffffffffffffffffffffffffffffffffffffff163b119050919050565b82805461227f90612d5c565b90600052602060002090601f0160209004810192826122a157600085556122e8565b82601f106122ba57805160ff19168380011785556122e8565b828001600101855582156122e8579182015b828111156122e75782518255916020019190600101906122cc565b5b5090506122f591906123cd565b5090565b82805461230590612d5c565b90600052602060002090601f016020900481019282612327576000855561236e565b82601f1061234057805160ff191683800117855561236e565b8280016001018555821561236e579182015b8281111561236d578251825591602001919060010190612352565b5b50905061237b91906123cd565b5090565b60405180610120016040528060008152602001606081526020016060815260200160608152602001600081526020016000815260200160008152602001600015158152602001606081525090565b5b808211156123e65760008160009055506001016123ce565b5090565b6000604051905090565b600080fd5b600080fd5b60007fffffffff0000000000000000000000000000000000000000000000000000000082169050919050565b612433816123fe565b811461243e57600080fd5b50565b6000813590506124508161242a565b92915050565b60006020828403121561246c5761246b6123f4565b5b600061247a84828501612441565b91505092915050565b60008115159050919050565b61249881612483565b82525050565b60006020820190506124b3600083018461248f565b92915050565b600081519050919050565b600082825260208201905092915050565b60005b838110156124f35780820151818401526020810190506124d8565b83811115612502576000848401525b50505050565b6000601f19601f8301169050919050565b6000612524826124b9565b61252e81856124c4565b935061253e8185602086016124d5565b61254781612508565b840191505092915050565b6000602082019050818103600083015261256c8184612519565b905092915050565b6000819050919050565b61258781612574565b811461259257600080fd5b50565b6000813590506125a48161257e565b92915050565b6000602082840312156125c0576125bf6123f4565b5b60006125ce84828501612595565b91505092915050565b600073ffffffffffffffffffffffffffffffffffffffff82169050919050565b6000612602826125d7565b9050919050565b612612816125f7565b82525050565b600060208201905061262d6000830184612609565b92915050565b61263c816125f7565b811461264757600080fd5b50565b60008135905061265981612633565b92915050565b60008060408385031215612676576126756123f4565b5b60006126848582860161264a565b925050602061269585828601612595565b9150509250929050565b600080fd5b600080fd5b7f4e487b7100000000000000000000000000000000000000000000000000000000600052604160045260246000fd5b6126e182612508565b810181811067ffffffffffffffff82111715612700576126ff6126a9565b5b80604052505050565b60006127136123ea565b905061271f82826126d8565b919050565b600067ffffffffffffffff82111561273f5761273e6126a9565b5b61274882612508565b9050602081019050919050565b82818337600083830152505050565b600061277761277284612724565b612709565b905082815260208101848484011115612793576127926126a4565b5b61279e848285612755565b509392505050565b600082601f8301126127bb576127ba61269f565b5b81356127cb848260208601612764565b91505092915050565b600067ffffffffffffffff8211156127ef576127ee6126a9565b5b6127f882612508565b9050602081019050919050565b6000612818612813846127d4565b612709565b905082815260208101848484011115612834576128336126a4565b5b61283f848285612755565b509392505050565b600082601f83011261285c5761285b61269f565b5b813561286c848260208601612805565b91505092915050565b600080600080600080600080610100898b031215612896576128956123f4565b5b60006128a48b828c01612595565b985050602089013567ffffffffffffffff8111156128c5576128c46123f9565b5b6128d18b828c016127a6565b975050604089013567ffffffffffffffff8111156128f2576128f16123f9565b5b6128fe8b828c016127a6565b965050606089013567ffffffffffffffff81111561291f5761291e6123f9565b5b61292b8b828c016127a6565b955050608061293c8b828c01612595565b94505060a061294d8b828c01612595565b93505060c061295e8b828c01612595565b92505060e089013567ffffffffffffffff81111561297f5761297e6123f9565b5b61298b8b828c01612847565b9150509295985092959890939650565b6000806000606084860312156129b4576129b36123f4565b5b60006129c28682870161264a565b93505060206129d38682870161264a565b92505060406129e486828701612595565b9150509250925092565b600060208284031215612a0457612a036123f4565b5b6000612a128482850161264a565b91505092915050565b612a2481612574565b82525050565b6000602082019050612a3f6000830184612a1b565b92915050565b612a4e81612483565b8114612a5957600080fd5b50565b600081359050612a6b81612a45565b92915050565b60008060408385031215612a8857612a876123f4565b5b6000612a968582860161264a565b9250506020612aa785828601612a5c565b9150509250929050565b60008060008060808587031215612acb57612aca6123f4565b5b6000612ad98782880161264a565b9450506020612aea8782880161264a565b9350506040612afb87828801612595565b925050606085013567ffffffffffffffff811115612b1c57612b1b6123f9565b5b612b2887828801612847565b91505092959194509250565b60008060408385031215612b4b57612b4a6123f4565b5b6000612b598582860161264a565b9250506020612b6a8582860161264a565b9150509250929050565b612b7d81612574565b82525050565b600082825260208201905092915050565b6000612b9f826124b9565b612ba98185612b83565b9350612bb98185602086016124d5565b612bc281612508565b840191505092915050565b612bd681612483565b82525050565b600081519050919050565b600082825260208201905092915050565b6000612c0382612bdc565b612c0d8185612be7565b9350612c1d8185602086016124d5565b612c2681612508565b840191505092915050565b600061012083016000830151612c4a6000860182612b74565b5060208301518482036020860152612c628282612b94565b91505060408301518482036040860152612c7c8282612b94565b91505060608301518482036060860152612c968282612b94565b9150506080830151612cab6080860182612b74565b5060a0830151612cbe60a0860182612b74565b5060c0830151612cd160c0860182612b74565b5060e0830151612ce460e0860182612bcd565b50610100830151848203610100860152612cfe8282612bf8565b9150508091505092915050565b60006020820190508181036000830152612d258184612c31565b905092915050565b7f4e487b7100000000000000000000000000000000000000000000000000000000600052602260045260246000fd5b60006002820490506001821680612d7457607f821691505b60208210811415612d8857612d87612d2d565b5b50919050565b7f4552433732313a20617070726f76616c20746f2063757272656e74206f776e6560008201527f7200000000000000000000000000000000000000000000000000000000000000602082015250565b6000612dea6021836124c4565b9150612df582612d8e565b604082019050919050565b60006020820190508181036000830152612e1981612ddd565b9050919050565b7f4552433732313a20617070726f76652063616c6c6572206973206e6f7420746f60008201527f6b656e206f776e6572206f7220617070726f76656420666f7220616c6c000000602082015250565b6000612e7c603d836124c4565b9150612e8782612e20565b604082019050919050565b60006020820190508181036000830152612eab81612e6f565b9050919050565b7f4e487b7100000000000000000000000000000000000000000000000000000000600052601160045260246000fd5b6000612eec82612574565b9150612ef783612574565b9250827fffffffffffffffffffffffffffffffffffffffffffffffffffffffffffffffff03821115612f2c57612f2b612eb2565b5b828201905092915050565b7f4552433732313a2063616c6c6572206973206e6f7420746f6b656e206f776e6560008201527f72206f7220617070726f76656400000000000000000000000000000000000000602082015250565b6000612f93602d836124c4565b9150612f9e82612f37565b604082019050919050565b60006020820190508181036000830152612fc281612f86565b9050919050565b7f4e487b7100000000000000000000000000000000000000000000000000000000600052603260045260246000fd5b600061300382612574565b91507fffffffffffffffffffffffffffffffffffffffffffffffffffffffffffffffff82141561303657613035612eb2565b5b600182019050919050565b7f63616e742774206269642c206d616b6520612068696768657220426964000000600082015250565b6000613077601d836124c4565b915061308282613041565b602082019050919050565b600060208201905081810360008301526130a68161306a565b9050919050565b60006040820190506130c26000830185612609565b6130cf6020830184612a1b565b9392505050565b7f4552433732313a20696e76616c696420746f6b656e2049440000000000000000600082015250565b600061310c6018836124c4565b9150613117826130d6565b602082019050919050565b6000602082019050818103600083015261313b816130ff565b9050919050565b7f4552433732313a2061646472657373207a65726f206973206e6f74206120766160008201527f6c6964206f776e65720000000000000000000000000000000000000000000000602082015250565b600061319e6029836124c4565b91506131a982613142565b604082019050919050565b600060208201905081810360008301526131cd81613191565b9050919050565b600081905092915050565b60006131ea826124b9565b6131f481856131d4565b93506132048185602086016124d5565b80840191505092915050565b600061321c82856131df565b915061322882846131df565b91508190509392505050565b7f4552433732313a206d696e7420746f20746865207a65726f2061646472657373600082015250565b600061326a6020836124c4565b915061327582613234565b602082019050919050565b600060208201905081810360008301526132998161325d565b9050919050565b7f4552433732313a20746f6b656e20616c7265616479206d696e74656400000000600082015250565b60006132d6601c836124c4565b91506132e1826132a0565b602082019050919050565b60006020820190508181036000830152613305816132c9565b9050919050565b7f4552433732313a207472616e736665722066726f6d20696e636f72726563742060008201527f6f776e6572000000000000000000000000000000000000000000000000000000602082015250565b60006133686025836124c4565b91506133738261330c565b604082019050919050565b600060208201905081810360008301526133978161335b565b9050919050565b7f4552433732313a207472616e7366657220746f20746865207a65726f2061646460008201527f7265737300000000000000000000000000000000000000000000000000000000602082015250565b60006133fa6024836124c4565b91506134058261339e565b604082019050919050565b60006020820190508181036000830152613429816133ed565b9050919050565b7f4552433732313a20617070726f766520746f2063616c6c657200000000000000600082015250565b60006134666019836124c4565b915061347182613430565b602082019050919050565b6000602082019050818103600083015261349581613459565b9050919050565b7f4552433732313a207472616e7366657220746f206e6f6e20455243373231526560008201527f63656976657220696d706c656d656e7465720000000000000000000000000000602082015250565b60006134f86032836124c4565b91506135038261349c565b604082019050919050565b60006020820190508181036000830152613527816134eb565b9050919050565b7f4e487b7100000000000000000000000000000000000000000000000000000000600052601260045260246000fd5b600082825260208201905092915050565b600061357982612bdc565b613583818561355d565b93506135938185602086016124d5565b61359c81612508565b840191505092915050565b60006080820190506135bc6000830187612609565b6135c96020830186612609565b6135d66040830185612a1b565b81810360608301526135e8818461356e565b905095945050505050565b6000815190506136028161242a565b92915050565b60006020828403121561361e5761361d6123f4565b5b600061362c848285016135f3565b9150509291505056fea2646970667358221220ada90da03eb96206cec6ce7930adea1e4f6868bcee7eb936bbe6d6250c6c798964736f6c634300080a0033",
  "immutableReferences": {},
  "source": "// SPDX-License-Identifier: MIT\r\n\r\npragma solidity 0.8.10;\r\n\r\nimport \"./Land.sol\";\r\n\r\ncontract LandSale is LandRegistration {\r\n    struct BidDetail {\r\n        uint256 highestBid;\r\n        address highestBidder;\r\n        mapping(address => uint256) bids;\r\n        address[] bidders;\r\n    }\r\n\r\n    mapping(uint256 => BidDetail) BidDetails;\r\n\r\n    function bid(uint256 landID) public payable {\r\n        require(msg.sender != ownerOf(landID));\r\n        require(\r\n            BidDetails[landID].bids[msg.sender] + msg.value >\r\n                BidDetails[landID].highestBid,\r\n            \"cant't bid, make a higher Bid\"\r\n        );\r\n        BidDetails[landID].highestBidder = msg.sender;\r\n        BidDetails[landID].bidders.push(msg.sender);\r\n        BidDetails[landID].highestBid += msg.value;\r\n        BidDetails[landID].bids[msg.sender] += msg.value;\r\n        emit BidEvent(landID, BidDetails[landID].highestBidder, BidDetails[landID].highestBid);\r\n    }\r\n\r\n    function acceptBid(uint256 landID) public {\r\n        payable(msg.sender).transfer(BidDetails[landID].highestBid);\r\n        safeTransferFrom(msg.sender, BidDetails[landID].highestBidder, landID);\r\n        for (uint256 i = 0; i < BidDetails[landID].bidders.length; i++) {\r\n            if (\r\n                BidDetails[landID].bidders[i] ==\r\n                BidDetails[landID].highestBidder\r\n            ) {\r\n                continue;\r\n            }\r\n            payable(BidDetails[landID].bidders[i]).transfer(\r\n                BidDetails[landID].bids[BidDetails[landID].bidders[i]]\r\n            );\r\n        }\r\n        LandDetails[landID].salesStatus = true;\r\n    }\r\n\r\n    fallback() external {\r\n        revert();\r\n    }\r\n    event BidEvent(uint256 indexed landID, address highestBidder, uint256 highestBid);\r\n}\r\n",
  "sourcePath": "D:\\blockchainarchitect9\\kba\\Certified_Ethereum_Developer\\EthereumLab\\Land-Marketplace-Template-main\\contracts\\LandSale.sol",
  "compiler": {
    "name": "solc",
    "version": "0.8.10+commit.fc410830.Emscripten.clang"
  },
  "schemaVersion": "3.4.16",
  "updatedAt": "2023-09-11T20:57:16.289Z",
  "networkType": "ethereum",
  "devdoc": {
    "kind": "dev",
    "methods": {
      "approve(address,uint256)": {
        "details": "See {IERC721-approve}."
      },
      "balanceOf(address)": {
        "details": "See {IERC721-balanceOf}."
      },
      "getApproved(uint256)": {
        "details": "See {IERC721-getApproved}."
      },
      "isApprovedForAll(address,address)": {
        "details": "See {IERC721-isApprovedForAll}."
      },
      "name()": {
        "details": "See {IERC721Metadata-name}."
      },
      "ownerOf(uint256)": {
        "details": "See {IERC721-ownerOf}."
      },
      "safeTransferFrom(address,address,uint256)": {
        "details": "See {IERC721-safeTransferFrom}."
      },
      "safeTransferFrom(address,address,uint256,bytes)": {
        "details": "See {IERC721-safeTransferFrom}."
      },
      "setApprovalForAll(address,bool)": {
        "details": "See {IERC721-setApprovalForAll}."
      },
      "supportsInterface(bytes4)": {
        "details": "See {IERC165-supportsInterface}."
      },
      "symbol()": {
        "details": "See {IERC721Metadata-symbol}."
      },
      "tokenURI(uint256)": {
        "details": "See {IERC721Metadata-tokenURI}."
      },
      "transferFrom(address,address,uint256)": {
        "details": "See {IERC721-transferFrom}."
      }
    },
    "version": 1
  },
  "userdoc": {
    "kind": "user",
    "methods": {},
    "version": 1
  }
}