{
  "contractName": "LandRegistration",
  "abi": [
    {
      "inputs": [],
      "stateMutability": "nonpayable",
      "type": "constructor"
    },
    {
      "anonymous": false,
      "inputs": [
        {
          "indexed": true,
          "internalType": "address",
          "name": "owner",
          "type": "address"
        },
        {
          "indexed": true,
          "internalType": "address",
          "name": "approved",
          "type": "address"
        },
        {
          "indexed": true,
          "internalType": "uint256",
          "name": "tokenId",
          "type": "uint256"
        }
      ],
      "name": "Approval",
      "type": "event"
    },
    {
      "anonymous": false,
      "inputs": [
        {
          "indexed": true,
          "internalType": "address",
          "name": "owner",
          "type": "address"
        },
        {
          "indexed": true,
          "internalType": "address",
          "name": "operator",
          "type": "address"
        },
        {
          "indexed": false,
          "internalType": "bool",
          "name": "approved",
          "type": "bool"
        }
      ],
      "name": "ApprovalForAll",
      "type": "event"
    },
    {
      "anonymous": false,
      "inputs": [
        {
          "indexed": true,
          "internalType": "address",
          "name": "from",
          "type": "address"
        },
        {
          "indexed": true,
          "internalType": "address",
          "name": "to",
          "type": "address"
        },
        {
          "indexed": true,
          "internalType": "uint256",
          "name": "tokenId",
          "type": "uint256"
        }
      ],
      "name": "Transfer",
      "type": "event"
    },
    {
      "inputs": [
        {
          "internalType": "address",
          "name": "to",
          "type": "address"
        },
        {
          "internalType": "uint256",
          "name": "tokenId",
          "type": "uint256"
        }
      ],
      "name": "approve",
      "outputs": [],
      "stateMutability": "nonpayable",
      "type": "function"
    },
    {
      "inputs": [
        {
          "internalType": "address",
          "name": "owner",
          "type": "address"
        }
      ],
      "name": "balanceOf",
      "outputs": [
        {
          "internalType": "uint256",
          "name": "",
          "type": "uint256"
        }
      ],
      "stateMutability": "view",
      "type": "function"
    },
    {
      "inputs": [
        {
          "internalType": "uint256",
          "name": "tokenId",
          "type": "uint256"
        }
      ],
      "name": "getApproved",
      "outputs": [
        {
          "internalType": "address",
          "name": "",
          "type": "address"
        }
      ],
      "stateMutability": "view",
      "type": "function"
    },
    {
      "inputs": [
        {
          "internalType": "address",
          "name": "owner",
          "type": "address"
        },
        {
          "internalType": "address",
          "name": "operator",
          "type": "address"
        }
      ],
      "name": "isApprovedForAll",
      "outputs": [
        {
          "internalType": "bool",
          "name": "",
          "type": "bool"
        }
      ],
      "stateMutability": "view",
      "type": "function"
    },
    {
      "inputs": [],
      "name": "name",
      "outputs": [
        {
          "internalType": "string",
          "name": "",
          "type": "string"
        }
      ],
      "stateMutability": "view",
      "type": "function"
    },
    {
      "inputs": [
        {
          "internalType": "uint256",
          "name": "tokenId",
          "type": "uint256"
        }
      ],
      "name": "ownerOf",
      "outputs": [
        {
          "internalType": "address",
          "name": "",
          "type": "address"
        }
      ],
      "stateMutability": "view",
      "type": "function"
    },
    {
      "inputs": [],
      "name": "registeredLandCount",
      "outputs": [
        {
          "internalType": "uint256",
          "name": "",
          "type": "uint256"
        }
      ],
      "stateMutability": "view",
      "type": "function"
    },
    {
      "inputs": [
        {
          "internalType": "address",
          "name": "from",
          "type": "address"
        },
        {
          "internalType": "address",
          "name": "to",
          "type": "address"
        },
        {
          "internalType": "uint256",
          "name": "tokenId",
          "type": "uint256"
        }
      ],
      "name": "safeTransferFrom",
      "outputs": [],
      "stateMutability": "nonpayable",
      "type": "function"
    },
    {
      "inputs": [
        {
          "internalType": "address",
          "name": "from",
          "type": "address"
        },
        {
          "internalType": "address",
          "name": "to",
          "type": "address"
        },
        {
          "internalType": "uint256",
          "name": "tokenId",
          "type": "uint256"
        },
        {
          "internalType": "bytes",
          "name": "data",
          "type": "bytes"
        }
      ],
      "name": "safeTransferFrom",
      "outputs": [],
      "stateMutability": "nonpayable",
      "type": "function"
    },
    {
      "inputs": [
        {
          "internalType": "address",
          "name": "operator",
          "type": "address"
        },
        {
          "internalType": "bool",
          "name": "approved",
          "type": "bool"
        }
      ],
      "name": "setApprovalForAll",
      "outputs": [],
      "stateMutability": "nonpayable",
      "type": "function"
    },
    {
      "inputs": [
        {
          "internalType": "bytes4",
          "name": "interfaceId",
          "type": "bytes4"
        }
      ],
      "name": "supportsInterface",
      "outputs": [
        {
          "internalType": "bool",
          "name": "",
          "type": "bool"
        }
      ],
      "stateMutability": "view",
      "type": "function"
    },
    {
      "inputs": [],
      "name": "symbol",
      "outputs": [
        {
          "internalType": "string",
          "name": "",
          "type": "string"
        }
      ],
      "stateMutability": "view",
      "type": "function"
    },
    {
      "inputs": [
        {
          "internalType": "uint256",
          "name": "tokenId",
          "type": "uint256"
        }
      ],
      "name": "tokenURI",
      "outputs": [
        {
          "internalType": "string",
          "name": "",
          "type": "string"
        }
      ],
      "stateMutability": "view",
      "type": "function"
    },
    {
      "inputs": [
        {
          "internalType": "address",
          "name": "from",
          "type": "address"
        },
        {
          "internalType": "address",
          "name": "to",
          "type": "address"
        },
        {
          "internalType": "uint256",
          "name": "tokenId",
          "type": "uint256"
        }
      ],
      "name": "transferFrom",
      "outputs": [],
      "stateMutability": "nonpayable",
      "type": "function"
    },
    {
      "inputs": [
        {
          "internalType": "uint256",
          "name": "surveyNo",
          "type": "uint256"
        },
        {
          "internalType": "string",
          "name": "district",
          "type": "string"
        },
        {
          "internalType": "string",
          "name": "taluk",
          "type": "string"
        },
        {
          "internalType": "string",
          "name": "village",
          "type": "string"
        },
        {
          "internalType": "uint256",
          "name": "blockNo",
          "type": "uint256"
        },
        {
          "internalType": "uint256",
          "name": "landValue",
          "type": "uint256"
        },
        {
          "internalType": "uint256",
          "name": "area",
          "type": "uint256"
        },
        {
          "internalType": "bytes",
          "name": "documentHash",
          "type": "bytes"
        }
      ],
      "name": "registerNewLand",
      "outputs": [],
      "stateMutability": "nonpayable",
      "type": "function"
    },
    {
      "inputs": [
        {
          "internalType": "uint256",
          "name": "landID",
          "type": "uint256"
        }
      ],
      "name": "getLandDetails",
      "outputs": [
        {
          "components": [
            {
              "internalType": "uint256",
              "name": "surveyNo",
              "type": "uint256"
            },
            {
              "internalType": "string",
              "name": "district",
              "type": "string"
            },
            {
              "internalType": "string",
              "name": "taluk",
              "type": "string"
            },
            {
              "internalType": "string",
              "name": "village",
              "type": "string"
            },
            {
              "internalType": "uint256",
              "name": "blockNo",
              "type": "uint256"
            },
            {
              "internalType": "uint256",
              "name": "landValue",
              "type": "uint256"
            },
            {
              "internalType": "uint256",
              "name": "area",
              "type": "uint256"
            },
            {
              "internalType": "bool",
              "name": "salesStatus",
              "type": "bool"
            },
            {
              "internalType": "bytes",
              "name": "documentHash",
              "type": "bytes"
            }
          ],
          "internalType": "struct LandRegistration.LandDetail",
          "name": "",
          "type": "tuple"
        }
      ],
      "stateMutability": "view",
      "type": "function"
    }
  ],
  "bytecode": "0x608060405260006007553480156200001657600080fd5b506040518060400160405280600481526020017f4c616e64000000000000000000000000000000000000000000000000000000008152506040518060400160405280600381526020017f4c4e44000000000000000000000000000000000000000000000000000000000081525081600090805190602001906200009b929190620000bd565b508060019080519060200190620000b4929190620000bd565b505050620001d2565b828054620000cb906200019c565b90600052602060002090601f016020900481019282620000ef57600085556200013b565b82601f106200010a57805160ff19168380011785556200013b565b828001600101855582156200013b579182015b828111156200013a5782518255916020019190600101906200011d565b5b5090506200014a91906200014e565b5090565b5b80821115620001695760008160009055506001016200014f565b5090565b7f4e487b7100000000000000000000000000000000000000000000000000000000600052602260045260246000fd5b60006002820490506001821680620001b557607f821691505b60208210811415620001cc57620001cb6200016d565b5b50919050565b612e4380620001e26000396000f3fe608060405234801561001057600080fd5b50600436106101005760003560e01c806370a0823111610097578063b88d4fde11610066578063b88d4fde146102ab578063c87b56dd146102c7578063e985e9c5146102f7578063fe0cb7dc1461032757610100565b806370a082311461022357806395d89b4114610253578063a22cb46514610271578063a7613a7d1461028d57610100565b806310d10780116100d357806310d107801461019f57806323b872dd146101bb57806342842e0e146101d75780636352211e146101f357610100565b806301ffc9a71461010557806306fdde0314610135578063081812fc14610153578063095ea7b314610183575b600080fd5b61011f600480360381019061011a9190611d3b565b610357565b60405161012c9190611d83565b60405180910390f35b61013d610439565b60405161014a9190611e37565b60405180910390f35b61016d60048036038101906101689190611e8f565b6104cb565b60405161017a9190611efd565b60405180910390f35b61019d60048036038101906101989190611f44565b610511565b005b6101b960048036038101906101b4919061215a565b610629565b005b6101d560048036038101906101d09190612280565b610771565b005b6101f160048036038101906101ec9190612280565b6107d1565b005b61020d60048036038101906102089190611e8f565b6107f1565b60405161021a9190611efd565b60405180910390f35b61023d600480360381019061023891906122d3565b610878565b60405161024a919061230f565b60405180910390f35b61025b610930565b6040516102689190611e37565b60405180910390f35b61028b60048036038101906102869190612356565b6109c2565b005b6102956109d8565b6040516102a2919061230f565b60405180910390f35b6102c560048036038101906102c09190612396565b6109de565b005b6102e160048036038101906102dc9190611e8f565b610a40565b6040516102ee9190611e37565b60405180910390f35b610311600480360381019061030c9190612419565b610aa8565b60405161031e9190611d83565b60405180910390f35b610341600480360381019061033c9190611e8f565b610b3c565b60405161034e91906125f0565b60405180910390f35b60007f80ac58cd000000000000000000000000000000000000000000000000000000007bffffffffffffffffffffffffffffffffffffffffffffffffffffffff1916827bffffffffffffffffffffffffffffffffffffffffffffffffffffffff1916148061042257507f5b5e139f000000000000000000000000000000000000000000000000000000007bffffffffffffffffffffffffffffffffffffffffffffffffffffffff1916827bffffffffffffffffffffffffffffffffffffffffffffffffffffffff1916145b80610432575061043182610df5565b5b9050919050565b60606000805461044890612641565b80601f016020809104026020016040519081016040528092919081815260200182805461047490612641565b80156104c15780601f10610496576101008083540402835291602001916104c1565b820191906000526020600020905b8154815290600101906020018083116104a457829003601f168201915b5050505050905090565b60006104d682610e5f565b6004600083815260200190815260200160002060009054906101000a900473ffffffffffffffffffffffffffffffffffffffff169050919050565b600061051c826107f1565b90508073ffffffffffffffffffffffffffffffffffffffff168373ffffffffffffffffffffffffffffffffffffffff16141561058d576040517f08c379a0000000000000000000000000000000000000000000000000000000008152600401610584906126e5565b60405180910390fd5b8073ffffffffffffffffffffffffffffffffffffffff166105ac610eaa565b73ffffffffffffffffffffffffffffffffffffffff1614806105db57506105da816105d5610eaa565b610aa8565b5b61061a576040517f08c379a000000000000000000000000000000000000000000000000000000000815260040161061190612777565b60405180910390fd5b6106248383610eb2565b505050565b604051806101200160405280898152602001888152602001878152602001868152602001858152602001848152602001838152602001600015158152602001828152506006600060075481526020019081526020016000206000820151816000015560208201518160010190805190602001906106a7929190611b58565b5060408201518160020190805190602001906106c4929190611b58565b5060608201518160030190805190602001906106e1929190611b58565b506080820151816004015560a0820151816005015560c0820151816006015560e08201518160070160006101000a81548160ff02191690831515021790555061010082015181600801908051906020019061073d929190611bde565b5090505061074d33600754610f6b565b60016007600082825461076091906127c6565b925050819055505050505050505050565b61078261077c610eaa565b82611189565b6107c1576040517f08c379a00000000000000000000000000000000000000000000000000000000081526004016107b89061288e565b60405180910390fd5b6107cc83838361121e565b505050565b6107ec838383604051806020016040528060008152506109de565b505050565b6000806107fd83611518565b9050600073ffffffffffffffffffffffffffffffffffffffff168173ffffffffffffffffffffffffffffffffffffffff16141561086f576040517f08c379a0000000000000000000000000000000000000000000000000000000008152600401610866906128fa565b60405180910390fd5b80915050919050565b60008073ffffffffffffffffffffffffffffffffffffffff168273ffffffffffffffffffffffffffffffffffffffff1614156108e9576040517f08c379a00000000000000000000000000000000000000000000000000000000081526004016108e09061298c565b60405180910390fd5b600360008373ffffffffffffffffffffffffffffffffffffffff1673ffffffffffffffffffffffffffffffffffffffff168152602001908152602001600020549050919050565b60606001805461093f90612641565b80601f016020809104026020016040519081016040528092919081815260200182805461096b90612641565b80156109b85780601f1061098d576101008083540402835291602001916109b8565b820191906000526020600020905b81548152906001019060200180831161099b57829003601f168201915b5050505050905090565b6109d46109cd610eaa565b8383611555565b5050565b60075481565b6109ef6109e9610eaa565b83611189565b610a2e576040517f08c379a0000000000000000000000000000000000000000000000000000000008152600401610a259061288e565b60405180910390fd5b610a3a848484846116c2565b50505050565b6060610a4b82610e5f565b6000610a5561171e565b90506000815111610a755760405180602001604052806000815250610aa0565b80610a7f84611735565b604051602001610a909291906129e8565b6040516020818303038152906040525b915050919050565b6000600560008473ffffffffffffffffffffffffffffffffffffffff1673ffffffffffffffffffffffffffffffffffffffff16815260200190815260200160002060008373ffffffffffffffffffffffffffffffffffffffff1673ffffffffffffffffffffffffffffffffffffffff16815260200190815260200160002060009054906101000a900460ff16905092915050565b610b44611c64565b600660008381526020019081526020016000206040518061012001604052908160008201548152602001600182018054610b7d90612641565b80601f0160208091040260200160405190810160405280929190818152602001828054610ba990612641565b8015610bf65780601f10610bcb57610100808354040283529160200191610bf6565b820191906000526020600020905b815481529060010190602001808311610bd957829003601f168201915b50505050508152602001600282018054610c0f90612641565b80601f0160208091040260200160405190810160405280929190818152602001828054610c3b90612641565b8015610c885780601f10610c5d57610100808354040283529160200191610c88565b820191906000526020600020905b815481529060010190602001808311610c6b57829003601f168201915b50505050508152602001600382018054610ca190612641565b80601f0160208091040260200160405190810160405280929190818152602001828054610ccd90612641565b8015610d1a5780601f10610cef57610100808354040283529160200191610d1a565b820191906000526020600020905b815481529060010190602001808311610cfd57829003601f168201915b505050505081526020016004820154815260200160058201548152602001600682015481526020016007820160009054906101000a900460ff16151515158152602001600882018054610d6c90612641565b80601f0160208091040260200160405190810160405280929190818152602001828054610d9890612641565b8015610de55780601f10610dba57610100808354040283529160200191610de5565b820191906000526020600020905b815481529060010190602001808311610dc857829003601f168201915b5050505050815250509050919050565b60007f01ffc9a7000000000000000000000000000000000000000000000000000000007bffffffffffffffffffffffffffffffffffffffffffffffffffffffff1916827bffffffffffffffffffffffffffffffffffffffffffffffffffffffff1916149050919050565b610e688161180d565b610ea7576040517f08c379a0000000000000000000000000000000000000000000000000000000008152600401610e9e906128fa565b60405180910390fd5b50565b600033905090565b816004600083815260200190815260200160002060006101000a81548173ffffffffffffffffffffffffffffffffffffffff021916908373ffffffffffffffffffffffffffffffffffffffff160217905550808273ffffffffffffffffffffffffffffffffffffffff16610f25836107f1565b73ffffffffffffffffffffffffffffffffffffffff167f8c5be1e5ebec7d5bd14f71427d1e84f3dd0314c0f7b2291e5b200ac8c7c3b92560405160405180910390a45050565b600073ffffffffffffffffffffffffffffffffffffffff168273ffffffffffffffffffffffffffffffffffffffff161415610fdb576040517f08c379a0000000000000000000000000000000000000000000000000000000008152600401610fd290612a58565b60405180910390fd5b610fe48161180d565b15611024576040517f08c379a000000000000000000000000000000000000000000000000000000000815260040161101b90612ac4565b60405180910390fd5b61103260008383600161184e565b61103b8161180d565b1561107b576040517f08c379a000000000000000000000000000000000000000000000000000000000815260040161107290612ac4565b60405180910390fd5b6001600360008473ffffffffffffffffffffffffffffffffffffffff1673ffffffffffffffffffffffffffffffffffffffff16815260200190815260200160002060008282540192505081905550816002600083815260200190815260200160002060006101000a81548173ffffffffffffffffffffffffffffffffffffffff021916908373ffffffffffffffffffffffffffffffffffffffff160217905550808273ffffffffffffffffffffffffffffffffffffffff16600073ffffffffffffffffffffffffffffffffffffffff167fddf252ad1be2c89b69c2b068fc378daa952ba7f163c4a11628f55a4df523b3ef60405160405180910390a4611185600083836001611854565b5050565b600080611195836107f1565b90508073ffffffffffffffffffffffffffffffffffffffff168473ffffffffffffffffffffffffffffffffffffffff1614806111d757506111d68185610aa8565b5b8061121557508373ffffffffffffffffffffffffffffffffffffffff166111fd846104cb565b73ffffffffffffffffffffffffffffffffffffffff16145b91505092915050565b8273ffffffffffffffffffffffffffffffffffffffff1661123e826107f1565b73ffffffffffffffffffffffffffffffffffffffff1614611294576040517f08c379a000000000000000000000000000000000000000000000000000000000815260040161128b90612b56565b60405180910390fd5b600073ffffffffffffffffffffffffffffffffffffffff168273ffffffffffffffffffffffffffffffffffffffff161415611304576040517f08c379a00000000000000000000000000000000000000000000000000000000081526004016112fb90612be8565b60405180910390fd5b611311838383600161184e565b8273ffffffffffffffffffffffffffffffffffffffff16611331826107f1565b73ffffffffffffffffffffffffffffffffffffffff1614611387576040517f08c379a000000000000000000000000000000000000000000000000000000000815260040161137e90612b56565b60405180910390fd5b6004600082815260200190815260200160002060006101000a81549073ffffffffffffffffffffffffffffffffffffffff02191690556001600360008573ffffffffffffffffffffffffffffffffffffffff1673ffffffffffffffffffffffffffffffffffffffff168152602001908152602001600020600082825403925050819055506001600360008473ffffffffffffffffffffffffffffffffffffffff1673ffffffffffffffffffffffffffffffffffffffff16815260200190815260200160002060008282540192505081905550816002600083815260200190815260200160002060006101000a81548173ffffffffffffffffffffffffffffffffffffffff021916908373ffffffffffffffffffffffffffffffffffffffff160217905550808273ffffffffffffffffffffffffffffffffffffffff168473ffffffffffffffffffffffffffffffffffffffff167fddf252ad1be2c89b69c2b068fc378daa952ba7f163c4a11628f55a4df523b3ef60405160405180910390a46115138383836001611854565b505050565b60006002600083815260200190815260200160002060009054906101000a900473ffffffffffffffffffffffffffffffffffffffff169050919050565b8173ffffffffffffffffffffffffffffffffffffffff168373ffffffffffffffffffffffffffffffffffffffff1614156115c4576040517f08c379a00000000000000000000000000000000000000000000000000000000081526004016115bb90612c54565b60405180910390fd5b80600560008573ffffffffffffffffffffffffffffffffffffffff1673ffffffffffffffffffffffffffffffffffffffff16815260200190815260200160002060008473ffffffffffffffffffffffffffffffffffffffff1673ffffffffffffffffffffffffffffffffffffffff16815260200190815260200160002060006101000a81548160ff0219169083151502179055508173ffffffffffffffffffffffffffffffffffffffff168373ffffffffffffffffffffffffffffffffffffffff167f17307eab39ab6107e8899845ad3d59bd9653f200f220920489ca2b5937696c31836040516116b59190611d83565b60405180910390a3505050565b6116cd84848461121e565b6116d98484848461185a565b611718576040517f08c379a000000000000000000000000000000000000000000000000000000000815260040161170f90612ce6565b60405180910390fd5b50505050565b606060405180602001604052806000815250905090565b606060006001611744846119e2565b01905060008167ffffffffffffffff81111561176357611762611f8e565b5b6040519080825280601f01601f1916602001820160405280156117955781602001600182028036833780820191505090505b509050600082602001820190505b600115611802578080600190039150507f3031323334353637383961626364656600000000000000000000000000000000600a86061a8153600a85816117ec576117eb612d06565b5b04945060008514156117fd57611802565b6117a3565b819350505050919050565b60008073ffffffffffffffffffffffffffffffffffffffff1661182f83611518565b73ffffffffffffffffffffffffffffffffffffffff1614159050919050565b50505050565b50505050565b600061187b8473ffffffffffffffffffffffffffffffffffffffff16611b35565b156119d5578373ffffffffffffffffffffffffffffffffffffffff1663150b7a026118a4610eaa565b8786866040518563ffffffff1660e01b81526004016118c69493929190612d7f565b6020604051808303816000875af192505050801561190257506040513d601f19601f820116820180604052508101906118ff9190612de0565b60015b611985573d8060008114611932576040519150601f19603f3d011682016040523d82523d6000602084013e611937565b606091505b5060008151141561197d576040517f08c379a000000000000000000000000000000000000000000000000000000000815260040161197490612ce6565b60405180910390fd5b805181602001fd5b63150b7a0260e01b7bffffffffffffffffffffffffffffffffffffffffffffffffffffffff1916817bffffffffffffffffffffffffffffffffffffffffffffffffffffffff1916149150506119da565b600190505b949350505050565b600080600090507a184f03e93ff9f4daa797ed6e38ed64bf6a1f0100000000000000008310611a40577a184f03e93ff9f4daa797ed6e38ed64bf6a1f0100000000000000008381611a3657611a35612d06565b5b0492506040810190505b6d04ee2d6d415b85acef81000000008310611a7d576d04ee2d6d415b85acef81000000008381611a7357611a72612d06565b5b0492506020810190505b662386f26fc100008310611aac57662386f26fc100008381611aa257611aa1612d06565b5b0492506010810190505b6305f5e1008310611ad5576305f5e1008381611acb57611aca612d06565b5b0492506008810190505b6127108310611afa576127108381611af057611aef612d06565b5b0492506004810190505b60648310611b1d5760648381611b1357611b12612d06565b5b0492506002810190505b600a8310611b2c576001810190505b80915050919050565b6000808273ffffffffffffffffffffffffffffffffffffffff163b119050919050565b828054611b6490612641565b90600052602060002090601f016020900481019282611b865760008555611bcd565b82601f10611b9f57805160ff1916838001178555611bcd565b82800160010185558215611bcd579182015b82811115611bcc578251825591602001919060010190611bb1565b5b509050611bda9190611cb2565b5090565b828054611bea90612641565b90600052602060002090601f016020900481019282611c0c5760008555611c53565b82601f10611c2557805160ff1916838001178555611c53565b82800160010185558215611c53579182015b82811115611c52578251825591602001919060010190611c37565b5b509050611c609190611cb2565b5090565b60405180610120016040528060008152602001606081526020016060815260200160608152602001600081526020016000815260200160008152602001600015158152602001606081525090565b5b80821115611ccb576000816000905550600101611cb3565b5090565b6000604051905090565b600080fd5b600080fd5b60007fffffffff0000000000000000000000000000000000000000000000000000000082169050919050565b611d1881611ce3565b8114611d2357600080fd5b50565b600081359050611d3581611d0f565b92915050565b600060208284031215611d5157611d50611cd9565b5b6000611d5f84828501611d26565b91505092915050565b60008115159050919050565b611d7d81611d68565b82525050565b6000602082019050611d986000830184611d74565b92915050565b600081519050919050565b600082825260208201905092915050565b60005b83811015611dd8578082015181840152602081019050611dbd565b83811115611de7576000848401525b50505050565b6000601f19601f8301169050919050565b6000611e0982611d9e565b611e138185611da9565b9350611e23818560208601611dba565b611e2c81611ded565b840191505092915050565b60006020820190508181036000830152611e518184611dfe565b905092915050565b6000819050919050565b611e6c81611e59565b8114611e7757600080fd5b50565b600081359050611e8981611e63565b92915050565b600060208284031215611ea557611ea4611cd9565b5b6000611eb384828501611e7a565b91505092915050565b600073ffffffffffffffffffffffffffffffffffffffff82169050919050565b6000611ee782611ebc565b9050919050565b611ef781611edc565b82525050565b6000602082019050611f126000830184611eee565b92915050565b611f2181611edc565b8114611f2c57600080fd5b50565b600081359050611f3e81611f18565b92915050565b60008060408385031215611f5b57611f5a611cd9565b5b6000611f6985828601611f2f565b9250506020611f7a85828601611e7a565b9150509250929050565b600080fd5b600080fd5b7f4e487b7100000000000000000000000000000000000000000000000000000000600052604160045260246000fd5b611fc682611ded565b810181811067ffffffffffffffff82111715611fe557611fe4611f8e565b5b80604052505050565b6000611ff8611ccf565b90506120048282611fbd565b919050565b600067ffffffffffffffff82111561202457612023611f8e565b5b61202d82611ded565b9050602081019050919050565b82818337600083830152505050565b600061205c61205784612009565b611fee565b90508281526020810184848401111561207857612077611f89565b5b61208384828561203a565b509392505050565b600082601f8301126120a05761209f611f84565b5b81356120b0848260208601612049565b91505092915050565b600067ffffffffffffffff8211156120d4576120d3611f8e565b5b6120dd82611ded565b9050602081019050919050565b60006120fd6120f8846120b9565b611fee565b90508281526020810184848401111561211957612118611f89565b5b61212484828561203a565b509392505050565b600082601f83011261214157612140611f84565b5b81356121518482602086016120ea565b91505092915050565b600080600080600080600080610100898b03121561217b5761217a611cd9565b5b60006121898b828c01611e7a565b985050602089013567ffffffffffffffff8111156121aa576121a9611cde565b5b6121b68b828c0161208b565b975050604089013567ffffffffffffffff8111156121d7576121d6611cde565b5b6121e38b828c0161208b565b965050606089013567ffffffffffffffff81111561220457612203611cde565b5b6122108b828c0161208b565b95505060806122218b828c01611e7a565b94505060a06122328b828c01611e7a565b93505060c06122438b828c01611e7a565b92505060e089013567ffffffffffffffff81111561226457612263611cde565b5b6122708b828c0161212c565b9150509295985092959890939650565b60008060006060848603121561229957612298611cd9565b5b60006122a786828701611f2f565b93505060206122b886828701611f2f565b92505060406122c986828701611e7a565b9150509250925092565b6000602082840312156122e9576122e8611cd9565b5b60006122f784828501611f2f565b91505092915050565b61230981611e59565b82525050565b60006020820190506123246000830184612300565b92915050565b61233381611d68565b811461233e57600080fd5b50565b6000813590506123508161232a565b92915050565b6000806040838503121561236d5761236c611cd9565b5b600061237b85828601611f2f565b925050602061238c85828601612341565b9150509250929050565b600080600080608085870312156123b0576123af611cd9565b5b60006123be87828801611f2f565b94505060206123cf87828801611f2f565b93505060406123e087828801611e7a565b925050606085013567ffffffffffffffff81111561240157612400611cde565b5b61240d8782880161212c565b91505092959194509250565b600080604083850312156124305761242f611cd9565b5b600061243e85828601611f2f565b925050602061244f85828601611f2f565b9150509250929050565b61246281611e59565b82525050565b600082825260208201905092915050565b600061248482611d9e565b61248e8185612468565b935061249e818560208601611dba565b6124a781611ded565b840191505092915050565b6124bb81611d68565b82525050565b600081519050919050565b600082825260208201905092915050565b60006124e8826124c1565b6124f281856124cc565b9350612502818560208601611dba565b61250b81611ded565b840191505092915050565b60006101208301600083015161252f6000860182612459565b50602083015184820360208601526125478282612479565b915050604083015184820360408601526125618282612479565b9150506060830151848203606086015261257b8282612479565b91505060808301516125906080860182612459565b5060a08301516125a360a0860182612459565b5060c08301516125b660c0860182612459565b5060e08301516125c960e08601826124b2565b506101008301518482036101008601526125e382826124dd565b9150508091505092915050565b6000602082019050818103600083015261260a8184612516565b905092915050565b7f4e487b7100000000000000000000000000000000000000000000000000000000600052602260045260246000fd5b6000600282049050600182168061265957607f821691505b6020821081141561266d5761266c612612565b5b50919050565b7f4552433732313a20617070726f76616c20746f2063757272656e74206f776e6560008201527f7200000000000000000000000000000000000000000000000000000000000000602082015250565b60006126cf602183611da9565b91506126da82612673565b604082019050919050565b600060208201905081810360008301526126fe816126c2565b9050919050565b7f4552433732313a20617070726f76652063616c6c6572206973206e6f7420746f60008201527f6b656e206f776e6572206f7220617070726f76656420666f7220616c6c000000602082015250565b6000612761603d83611da9565b915061276c82612705565b604082019050919050565b6000602082019050818103600083015261279081612754565b9050919050565b7f4e487b7100000000000000000000000000000000000000000000000000000000600052601160045260246000fd5b60006127d182611e59565b91506127dc83611e59565b9250827fffffffffffffffffffffffffffffffffffffffffffffffffffffffffffffffff0382111561281157612810612797565b5b828201905092915050565b7f4552433732313a2063616c6c6572206973206e6f7420746f6b656e206f776e6560008201527f72206f7220617070726f76656400000000000000000000000000000000000000602082015250565b6000612878602d83611da9565b91506128838261281c565b604082019050919050565b600060208201905081810360008301526128a78161286b565b9050919050565b7f4552433732313a20696e76616c696420746f6b656e2049440000000000000000600082015250565b60006128e4601883611da9565b91506128ef826128ae565b602082019050919050565b60006020820190508181036000830152612913816128d7565b9050919050565b7f4552433732313a2061646472657373207a65726f206973206e6f74206120766160008201527f6c6964206f776e65720000000000000000000000000000000000000000000000602082015250565b6000612976602983611da9565b91506129818261291a565b604082019050919050565b600060208201905081810360008301526129a581612969565b9050919050565b600081905092915050565b60006129c282611d9e565b6129cc81856129ac565b93506129dc818560208601611dba565b80840191505092915050565b60006129f482856129b7565b9150612a0082846129b7565b91508190509392505050565b7f4552433732313a206d696e7420746f20746865207a65726f2061646472657373600082015250565b6000612a42602083611da9565b9150612a4d82612a0c565b602082019050919050565b60006020820190508181036000830152612a7181612a35565b9050919050565b7f4552433732313a20746f6b656e20616c7265616479206d696e74656400000000600082015250565b6000612aae601c83611da9565b9150612ab982612a78565b602082019050919050565b60006020820190508181036000830152612add81612aa1565b9050919050565b7f4552433732313a207472616e736665722066726f6d20696e636f72726563742060008201527f6f776e6572000000000000000000000000000000000000000000000000000000602082015250565b6000612b40602583611da9565b9150612b4b82612ae4565b604082019050919050565b60006020820190508181036000830152612b6f81612b33565b9050919050565b7f4552433732313a207472616e7366657220746f20746865207a65726f2061646460008201527f7265737300000000000000000000000000000000000000000000000000000000602082015250565b6000612bd2602483611da9565b9150612bdd82612b76565b604082019050919050565b60006020820190508181036000830152612c0181612bc5565b9050919050565b7f4552433732313a20617070726f766520746f2063616c6c657200000000000000600082015250565b6000612c3e601983611da9565b9150612c4982612c08565b602082019050919050565b60006020820190508181036000830152612c6d81612c31565b9050919050565b7f4552433732313a207472616e7366657220746f206e6f6e20455243373231526560008201527f63656976657220696d706c656d656e7465720000000000000000000000000000602082015250565b6000612cd0603283611da9565b9150612cdb82612c74565b604082019050919050565b60006020820190508181036000830152612cff81612cc3565b9050919050565b7f4e487b7100000000000000000000000000000000000000000000000000000000600052601260045260246000fd5b600082825260208201905092915050565b6000612d51826124c1565b612d5b8185612d35565b9350612d6b818560208601611dba565b612d7481611ded565b840191505092915050565b6000608082019050612d946000830187611eee565b612da16020830186611eee565b612dae6040830185612300565b8181036060830152612dc08184612d46565b905095945050505050565b600081519050612dda81611d0f565b92915050565b600060208284031215612df657612df5611cd9565b5b6000612e0484828501612dcb565b9150509291505056fea2646970667358221220c17c946658ba1afe3feab3e44251ba94f68500f0521ec5c745efda082bee802e64736f6c634300080a0033",
  "immutableReferences": {},
  "source": "// SPDX-License-Identifier: MIT\r\n\r\npragma solidity 0.8.10;\r\n\r\nimport \"@openzeppelin/contracts/token/ERC721/ERC721.sol\";\r\n\r\ncontract LandRegistration is ERC721 {\r\n    constructor() ERC721(\"Land\", \"LND\") {}\r\n\r\n    struct LandDetail {\r\n        uint256 surveyNo;\r\n        string district;\r\n        string taluk;\r\n        string village;\r\n        uint256 blockNo;\r\n        uint256 landValue; // in wei\r\n        uint256 area;\r\n        bool salesStatus;\r\n        bytes documentHash;\r\n    }\r\n\r\n    mapping(uint256 => LandDetail) LandDetails;\r\n\r\n    uint256 public registeredLandCount = 0;\r\n\r\n    function registerNewLand(\r\n        uint256 surveyNo,\r\n        string memory district,\r\n        string memory taluk,\r\n        string memory village,\r\n        uint256 blockNo,\r\n        uint256 landValue,\r\n        uint256 area,\r\n        bytes memory documentHash\r\n    ) public {\r\n        LandDetails[registeredLandCount] = LandDetail(\r\n            surveyNo,\r\n            district,\r\n            taluk,\r\n            village,\r\n            blockNo,\r\n            landValue,\r\n            area,\r\n            false,\r\n            documentHash\r\n        );\r\n        _mint(msg.sender, registeredLandCount);\r\n        registeredLandCount += 1;\r\n    }\r\n\r\n    function getLandDetails(uint256 landID)\r\n        public\r\n        view\r\n        returns (LandDetail memory)\r\n    {\r\n        return LandDetails[landID];\r\n    }\r\n}\r\n",
  "sourcePath": "D:\\blockchainarchitect9\\kba\\Certified_Ethereum_Developer\\EthereumLab\\Land-Marketplace-Template-main\\contracts\\Land.sol",
  "compiler": {
    "name": "solc",
    "version": "0.8.10+commit.fc410830.Emscripten.clang"
  },
  "schemaVersion": "3.4.16",
  "updatedAt": "2023-09-11T19:15:39.481Z",
  "devdoc": {
    "kind": "dev",
    "methods": {
      "approve(address,uint256)": {
        "details": "See {IERC721-approve}."
      },
      "balanceOf(address)": {
        "details": "See {IERC721-balanceOf}."
      },
      "getApproved(uint256)": {
        "details": "See {IERC721-getApproved}."
      },
      "isApprovedForAll(address,address)": {
        "details": "See {IERC721-isApprovedForAll}."
      },
      "name()": {
        "details": "See {IERC721Metadata-name}."
      },
      "ownerOf(uint256)": {
        "details": "See {IERC721-ownerOf}."
      },
      "safeTransferFrom(address,address,uint256)": {
        "details": "See {IERC721-safeTransferFrom}."
      },
      "safeTransferFrom(address,address,uint256,bytes)": {
        "details": "See {IERC721-safeTransferFrom}."
      },
      "setApprovalForAll(address,bool)": {
        "details": "See {IERC721-setApprovalForAll}."
      },
      "supportsInterface(bytes4)": {
        "details": "See {IERC165-supportsInterface}."
      },
      "symbol()": {
        "details": "See {IERC721Metadata-symbol}."
      },
      "tokenURI(uint256)": {
        "details": "See {IERC721Metadata-tokenURI}."
      },
      "transferFrom(address,address,uint256)": {
        "details": "See {IERC721-transferFrom}."
      }
    },
    "version": 1
  },
  "userdoc": {
    "kind": "user",
    "methods": {},
    "version": 1
  }
}